:1000800000100020E12A0000012B0000B12A00002E
:100090000000000000000000000000000000000060
:1000A000000000000000000000000000052B000020
:1000B0000000000000000000072B0000DD4A0000E7
:1000C0000B2B0000C14D00000B2B00000B2B000080
:1000D0000B2B00000B2B00000B2B00000B2B000048
:1000E000714C00008D4C00000B2B00000B2B00000E
:1000F0000B2B00000B2B00000B2B00000B2B000028
:100100000B2B00000B2B00000B2B00000B2B000017
:100110000B2B00000B2B00000B2B00000B2B000007
:100120000B2B00000B2B00000B2B00000B2B0000F7
:100130000B2B0000053400000B2B00000B2B0000E4
:100140000348854600F006F8004800479952000031
:1001500000100020064C0125064E05E0E36807CCA0
:100160002B430C3C98471034B442F7D3FFF7ECFF15
:10017000180100004801000002E008C8121F08C171
:10018000002AFAD170477047002001E001C1121F18
:10019000002AFBD170470000C45500000000002079
:1001A000DC000000F8000000A0560000F00B00206A
:1001B00010000000F8000000A0560000DC00002045
:1001C0000002000008010000F8B52027184E144670
:1001D0008C46069D377003216A4686461170117859
:1001E0002C225143134A8918C9687160326AB2607F
:1001F0007470B570BD06EC17756128463461002B2C
:1002000000D10024F460002409E0D507ED0F00D0F0
:100210004A405208002D00D00243641CE4B2BC42A4
:10022000F3DBB261F1696246704600F005F8F8BD93
:100230006800002070020000FFB50646234881B028
:100240000025846921E032780398761C002801D0CB
:10025000D043C2B21D4F7878002804D00821104640
:1002600000F036F8024679697B6880208C4621468A
:10027000674639406400024201D001273C4300290F
:1002800000D05C404008F2D16D1C02988542DAD360
:100290000E4D002029566E696B6806E022463240FA
:1002A0006400002A00D05C40401C8842F6D3A87845
:1002B000002803D0204600F00BF80446E9682046E9
:1002C0004840296905B00840F0BD000068000020E2
:1002D00010B50446012300201A46491E8A4004E056
:1002E000144200D018435B005208002AF8D110BD18
:1002F0004352432D43434954540000002110000051
:10030000FFFF0000FFFF00000000000000000000F1
:100310000000000000000000000000004352432DD8
:10032000382020202000000007000000FF0000000F
:10033000FF000000000000000000000000000000BE
:1003400000000000000000004352432D3136202001
:100350002000000005800000FFFF0000FFFF0000FC
:10036000000000000000000000000000000000008D
:10037000000000004352432D3332202020000000B3
:10038000B71DC104FFFFFFFFFFFFFFFF00000000DC
:10039000000000000000000000000000000000005D
:1003A000000000000000000000000000000000004D
:1003B000000000000000000000000000000000003D
:1003C000000000000000000000000000000000002D
:1015D000000000000A20704700000000000000002A
:1015E00000000000000000000000000000000000FB
:1015F00000000000000000000000000000000000EB
:1016000000000000000000000000000000000000DA
:1016100000000000000000000000000000000000CA
:102B2000000000000000000000487047A92A0000D3
:102B300004207146084202D0EFF3098001E0EFF370
:102B400008807146004A1047E9380000012080F3F0
:102B500010887047FFB4002080F31088FFBC7047D6
:102B60000A480B4901600B4901600B4901600B4A9F
:102B70000B491160002101600A4880470A4800475C
:102B8000FEE7FEE7FEE7FEE7FEE7FEE700010040A6
:102B900059000000160000008800000024000040DA
:102BA000A55A0000814B0000C1000000FFB40120C5
:102BB00080F31088AA20AA281BD15520552818D1A7
:102BC0008B48000AAA2814D18A48000A552810D137
:102BD0008948000CAA280CD18848000C552808D137
:102BE0008748000EAA2804D18648000E552800D137
:102BF00004E0002080F31088FFBC704782488249BF
:102C0000884234D181488149884230D17E487E4A09
:102C100090422CD17D487D4A904228D17A487A4B07
:102C2000984224D17948794B984220D17648764C05
:102C3000A0421CD17548754CA04218D17248724D03
:102C4000A84214D17148714DA84210D16E486E4E01
:102C5000B0420CD16D486D4EB04208D16A486A4FFF
:102C6000B84204D16948694FB84200D104E000205D
:102C700080F31088FFBC704743464C4655465E467D
:102C8000674661488046404529D1604880464045B6
:102C900025D15D488146484521D15C48814648455B
:102CA0001DD159488246504519D158488246504551
:102CB00015D155488346584511D154488346584547
:102CC0000DD151488446604509D15048844660453D
:102CD00005D1BC46B346AA46A146984609E0002065
:102CE00080F31088FFBCBC46B346AA46A14698466E
:102CF0007047EFF31080002181F31088EFF310820A
:102D00008A4209D1012181F31088EFF310828A42AF
:102D100002D180F3108804E0002080F31088FFBC0B
:102D20007047EFF31480002181F31488EFF31482CD
:102D30008A4209D1022181F31488EFF314828A4276
:102D400002D180F3148804E0002080F31088FFBCD7
:102D50007047012080F31088EFF314806B46002247
:102D600082F31488EFF3088199420ED128498D46E9
:102D70008D450AD127498D468D4506D1002080F327
:102D8000108880F314889D4603E0FFBC80F314880C
:102D9000704770461C498E468E4505D11B498E46AC
:102DA0008E4501D1864604E0002080F31088FFBCE8
:102DB0007047EFF30080184981F30088EFF3008239
:102DC0008A4209D1154981F30088EFF300828A42D3
:102DD00002D180F3008801E0FFBC70471049012058
:102DE0000860002080F31088FFBC704700BF00001F
:102DF00000AA0000005500000000AA0000005500D5
:102E0000000000AA0000005555555555AAAAAAAAC7
:102E1000A8AAAAAA54555555000000A000000050C9
:102E20000C0000204E4A4F4B106819684E4A274646
:102E3000012413005B425B1E05008D4202D82A600C
:102E40002D1DFAE705008D4211D82E68964257D104
:102E50002B606E68964253D16B60EE6896424FD1FC
:102E6000EB60AE6896424BD1AB601035EBE70500E6
:102E70008D4211D82E689E4242D12A606E689E42D1
:102E80003ED16A60EE689E423AD1EA60AE689E42E8
:102E900036D1AA601035EBE70D000F3D854211D306
:102EA000AE6896422CD1AB60EE68964228D1EB60BA
:102EB0006E68964224D16B602E68964220D12B60BA
:102EC000103DEBE70D000F3D854211D3AE689E42E9
:102ED00016D1AA60EE689E4212D1EA606E689E42E8
:102EE0000ED16A602E689E420AD12A60103DEBE73F
:102EF00005008D4208D82E68964201D12D1DF8E7B5
:102F0000002420463C467047184A194B05008D4264
:102F1000F7D82B602A602E689642F1D12B602E687C
:102F20009E42EDD16B606A606E689642E8D16B603C
:102F30006E689E42E4D1EB60EA60EE689642DFD1B3
:102F4000EB60EE689E42DBD1AB60AA60AE68964251
:102F5000D6D1AB60AE689E42D2D11035D7E700BF64
:102F6000240000202800002000000000AAAAAAAA2D
:102F700055555555394A3A4B10681968394A27460C
:102F8000012413005B425B1E05008D4202D82A60BB
:102F90002D1DFAE705008D4211D82E6896422CD1DE
:102FA0002B606E68964228D16B60EE68964224D101
:102FB000EB60AE68964220D1AB601035EBE70D00B8
:102FC0000F3D854211D3AE689E4216D1AA60EE68CD
:102FD0009E4212D1EA606E689E420ED16A602E68EF
:102FE0009E420AD12A60103DEBE705008D4208D8C9
:102FF0002E68964201D12D1DF8E7002420463C465C
:103000007047194A194B05008D42F7D82B602A608A
:103010002E689642F1D12B602E689E42EDD16B60F6
:103020006A606E689642E8D16B606E689E42E4D139
:10303000EB60EA60EE689642DFD1EB60EE689E429C
:10304000DBD1AB60AA60AE689642D6D1AB60AE6809
:103050009E42D2D11035D7E700BF000024000020E7
:103060002800002000000000AAAAAAAA555555551C
:10307000FFB4012080F31088AA20AA281BD1552074
:10308000552818D13248000AAA2814D13148000A1C
:10309000552810D13048000CAA280CD12F48000C1C
:1030A000552808D12E48000EAA2804D12D48000E1C
:1030B000552800D104E0002080F31088FFBC704741
:1030C00029482949884234D128482849884230D1A2
:1030D0002548254A90422CD12448244A904228D1A0
:1030E0002148214B984224D12048204B984220D19E
:1030F0001D481D4CA0421CD11C481C4CA04218D19C
:103100001948194DA84214D11848184DA84210D199
:103110001548154EB0420CD11448144EB04208D197
:103120001148114FB84204D11048104FB84200D195
:1031300004E0002080F31088FFBC70470C49012098
:103140000860002080F31088FFBC704700BF0000BB
:1031500000AA0000005500000000AA000000550071
:10316000000000AA0000005555555555AAAAAAAA64
:103170000C000020FEB4704601B4FFF753FE01BC02
:1031800086462046FEBC704700BF30B50B46014660
:1031900000202022012409E00D46D5409D4205D3A0
:1031A0001D469540491B2546954040191546521E1F
:1031B000002DF1DC30BD70B500242546002801DA71
:1031C00001244042002901DA01254942FFF7DDFFD1
:1031D000AC4200D04042002C00D0494270BD0346B2
:1031E0000B439B0703D009E008C9121F08C0042A3B
:1031F000FAD203E00B780370401C491C521EF9D22E
:103200007047F0B51FB40646002082B00546402442
:10321000019100901BE0019922460F46304600F0D4
:1032200030F8049A059B801A994110D3104619462C
:10323000224600F016F8361A8F41019722460120E7
:103240000021009F00F00DF838184D4100902046F5
:10325000641E0028DFDC019B00982946324607B037
:10326000F0BD10B5202A04DB0146203A9140002031
:1032700010BD914020239C1A0346E340194390401F
:1032800010BD10B5202A04DB0846203AD0400021AA
:1032900010BD0B46D340D0402024A21A91400843D1
:1032A000194610BDCB0702228030002B02D00368E4
:1032B000934303608B0702D5836893438360490778
:1032C00002D5C1689143C1607047CB0702228030AC
:1032D000002B02D00368134303608B0702D5836879
:1032E00013438360490702D5C1681143C160704729
:1032F000F8B55448006801210843524908608B051D
:10330000002211464F48803800F0C6F847220021BD
:103310004C48803800F0FCF801204A49086101213E
:1033200048488038FFF7D1FF1D2001218140464ADF
:103330001160002045490860424800680121C90227
:1033400008434049086000BF404800680028FBD09F
:1033500001213C488038FFF7A5FF3A484038406BD0
:1033600086B200BF59203A490860162008608820BC
:10337000086008680028F5D000F0DAFA00BF0420E1
:103380003449C860702048600120086100BF00BF58
:1033900030480069C007C00F0028F9D12D48806867
:1033A000009000980005000D0090012308220021E4
:1033B0002448803800F070F801202249086101217A
:1033C00020488038FFF781FF1D20012181401E4ADF
:1033D000116000201D4908601A4800680121C902D7
:1033E00008431849086000BF184800680028FBD04F
:1033F000012114488038FFF755FF124880380068D3
:1034000087B203218902714308460099FFF7D3FE72
:103410000546294679430846C917090D09180C13B2
:103420000D48844202D80D48844207D221460CA0A0
:1034300001F022FD00201249086002E0012010493D
:103440000860F8BD8030044000E100E0D4000020B6
:103450000001004000C00040340800005406000095
:103460004144432074657374206661696C2025644F
:103470002028313632307E31393830290A000000B8
:103480004400002001200249086002490861704799
:10349000D400002080300440F0B50446FF34944648
:1034A000813462689E46D2078030002A21D1592695
:1034B000154D162788222E602F602A602B68002B5E
:1034C000F9D0026801231B031A4302600268D20488
:1034D000FCD400222A60626801231A4362602268D9
:1034E0001A4322600268DB021A4302606268D20754
:1034F000FCD00268054B1A400A4361460A43026049
:10350000416871464160F0BD00010040F3FBFFFFE0
:103510008030016A090A0902114301627047000004
:10352000014900200861704700E000E00EB509493C
:103530000EC900910192810F8A00029369468A5850
:10354000054951184A68C306DB0E01209840024322
:103550004A600EBD485500000002004070B50B4A9D
:103560000024146104280CD0094D2B693826B3437C
:1035700003432B6151619461106903210843106179
:1035800070BD1069042318431061F3E700E000E008
:103590000002004002490A6802430A6070470000C6
:1035A0000002004010B5114C002021694907490F65
:1035B00008D0012908D0022909D003290AD00729F7
:1035C0000BD00BE00A4809E00120C00306E000F040
:1035D0008BF803E04B20400200E00648216A09070F
:1035E000090F491CFFF7D1FD10BD0000000200408B
:1035F0000048E801006CDC0210B501F0B7FA04489D
:10360000406B41070348490F0068C84010BD0000E7
:10361000000200400000002010B501F0A7FA0448A5
:10362000406B4006410F03480068C84010BD0000D1
:10363000000200400000002008B511A000681149F8
:1036400000900968002005221204114216D10803D7
:1036500001D50D4800E00D488A030FD40A04920FEB
:103660006B469B5CCA058904D20DC90E891C800873
:10367000921C59435043FFF788FD800008BD0000AD
:103680000102020440020040001BB7000048E801AC
:1036900008B511A0006811490090096800200522B2
:1036A0001204114216D1080301D50D4800E00D485F
:1036B0008A030FD40A04920F6B469B5CCA058904E7
:1036C000D20DC90E891C8008921C59435043FFF744
:1036D0005CFD800008BD00000102020440020040C1
:1036E000001BB7000048E80108B511A000681149A7
:1036F00000900968002005221204114216D1080327
:1037000001D50D4800E00D488A030FD40A04920F3A
:103710006B469B5CCA058904D20DC90E891C8008C2
:10372000921C59435043FFF730FD800008BD000054
:103730000102020440020040001BB7000048E801FB
:10374000F3B5124881B005690F4610200F4C0540B3
:10375000403C2068042630432060102000F050F8E0
:103760002069072108432061206A000900013843CD
:1037700020622069884301990843206101F0F6F92D
:10378000002D02D12068B0432060FEBD4002004001
:10379000F0B5194B88B0F0CB009401ACE0C478CB05
:1037A00004AF78C7840A23061B0E0ED003039B0FB9
:1037B0009B0004ADEB58114D5B19E5B28405E40E96
:1037C000A5401C68AC4314431C60420E520710D045
:1037D0008200920F92006B469A58084B103BD21809
:1037E00003015B0FC001C00E83401068984308437B
:1037F000106008B0F0BD0000285500002002004015
:1038000010B504460749084B05E00A46491E002A40
:1038100001DC002010BD1A6920469043F5D101203B
:1038200010BD000080F5200040020040F3B583B0D9
:103830000546FF2201322846049900F0CFFE00BF62
:10384000364840690121890208400028F8D08A10D2
:103850002846049900F0C2FE002430E000BF28464C
:10386000049900F0B8FF0228F9D3FF22023228465B
:10387000049900F0B3FE0498C000212109016918E1
:10388000085882B22046641C400001A90A5200BFB9
:103890002846049900F09FFF0228F9D30122284608
:1038A000049900F09BFE0498C000832189006918E8
:1038B000085882B22046641C400001A90A52042C18
:1038C000CCD36846C1880089081A86B26846C08889
:1038D00001210904081A87B268460089081A80B2D3
:1038E00000900F48864210DB801C86420DDC0D489C
:1038F00087420ADB801C874207DC0B49009888421C
:1039000003DB891C0098884203DD0020074908601A
:1039100002E001200549086005B0F0BD4082054085
:10392000FF4A0000FFAE0000FFF900004000002049
:1039300002480168012211430160704700C0004045
:10394000F0B5002301273C469C400C4208D0056896
:103950005C000326A640B5431646A64035430560E5
:103960005B1C102BEFD3F0BD044603A001F084FADA
:10397000204601F0B5FDFEE7496E204861726420E3
:103980004661756C742048616E646C65720A000053
:1039900010B5FFF7ADFC10BDF8B52B480468E00783
:1039A00045D12A4E0125306800280AD1284F3560BC
:1039B000386000F05DFB3868002806D025A001F0D3
:1039C0005BFA7068002804D00DE027A001F054FADB
:1039D000FEE7756000F000FD28480068002806D06A
:1039E00027A001F049FAB068002804D00DE029A012
:1039F00001F042FAFEE7B56000F062FC2A48006878
:103A0000002806D029A001F037FAF068002804D079
:103A10000DE02BA001F030FAFEE7F560FFF7B8FFEC
:103A20002C48006800280BD02BA001F025FA2F4865
:103A3000844204D32E490020086003490860F8BD81
:103A40002CA001F019FAFEE758000020C400002065
:103A5000380000204750494F20746573743A205055
:103A60006173732021210A004750494F2074657308
:103A7000743A204661696C2021210A003C00002034
:103A800053504920746573743A2050617373202138
:103A9000210A000053504920746573743A2046612E
:103AA000696C2021210A00004000002050574D2061
:103AB000746573743A20506173732021210A0000E9
:103AC00050574D20746573743A204661696C20210B
:103AD000210A000044000020414420746573743AB8
:103AE00020506173732021210A000000FFFF0F00A6
:103AF00054000020414420746573743A2046616983
:103B00006C2021210A00000070B5174C01216422AD
:103B1000C906204601F0CCF8206801214907084376
:103B2000206048151149086011480025056020688B
:103B300089050843206059220E4C162088212260F6
:103B4000206021602368002BF9D04B2189010420DB
:103B5000FFF704FD256008480560084805604560DA
:103B60008560C56070BD00000000054000E100E018
:103B7000580000200001004054000020C400002034
:103B8000FEB55E48032107683846FFF7FEFA0126B6
:103B90005B4C0025019100290ED1206800280BD133
:103BA000584826600560FFF763FA56480068002809
:103BB0000AD055A001F060F905213846FFF7E5FA73
:103BC0000091002904D011E057A001F055F9FEE75B
:103BD000606800280AD15C48666000F05BFB5A48C8
:103BE0000068002809D059A001F046F90A2138469A
:103BF000FFF7CBFA002904D011E05BA001F03CF9FB
:103C0000FEE7A06800280AD15E48A66000F038FCF4
:103C10005C480068002806D05BA001F02DF90099EF
:103C2000002904D011E060A001F026F9FEE7206928
:103C300000280AD16448266100F082FB62480068CF
:103C4000002806D061A001F017F9E068002804D030
:103C50000EE065A001F010F9FEE76A48E66000F0AA
:103C60006DF968480068002809D067A001F004F9E0
:103C70001E213846FFF789FA002904D011E069A017
:103C800001F0FAF8FEE7606900280AD16C48666125
:103C900000F08EFA6A480068002806D069A001F09A
:103CA000EBF80199002904D014E06FA001F0E4F8CA
:103CB000FEE7A06900280DD1A66100F031FF74482D
:103CC00072498160016824229143082211430160F6
:103CD00070480560E069B84207D025606560A5605E
:103CE000E56025616561E761A5616B48874203D3A3
:103CF0006A48056001480560FEBD000058000020CC
:103D00008C0000200C00002072756E74696D6520B7
:103D10004350552072656720746573743A20506172
:103D200073732021210A000072756E74696D65201D
:103D30004350552072656720746573743A2046615C
:103D4000696C2021210A00001C00002072756E742D
:103D5000696D6520504320746573743A2050617317
:103D6000732021210A00000072756E74696D652050
:103D7000504320746573743A204661696C20212198
:103D80000A0000003000002072756E74696D6520B5
:103D9000537461636B20746573743A20506173735C
:103DA0002021210A0000000072756E74696D652083
:103DB000537461636B20746573743A204661696C57
:103DC0002021210A000000002C00002072756E7472
:103DD000696D652052414D20746573743A205061BD
:103DE00073732021210A000072756E74696D65205D
:103DF00052414D20746573743A204661696C2021EC
:103E0000210A00003400002072756E74696D65200F
:103E1000524F4D20746573743A20506173732021A2
:103E2000210A000072756E74696D6520524F4D2035
:103E3000746573743A204661696C2021210A000080
:103E40002000002072756E74696D6520496E74657E
:103E5000727275707420746573743A205061737354
:103E60002021210A0000000072756E74696D6520C2
:103E7000496E7465727275707420746573743A203B
:103E80004661696C2021210A00000000A55A00004B
:103E90000000044000010040FFFF0F00540000201C
:103EA000F8B51E4D01216422C906284600F000FF26
:103EB000286801214907084328600827184E48153B
:103EC00030601848002404602868490008432860CE
:103ED00000F026FE4B2189010420FFF73FFB124D25
:103EE0002C601248046000F01BFE17211048890165
:103EF00001601049816001682422914339430160C7
:103F00002C60022030600C48046044608460C4600F
:103F1000046144618461C4610462F8BD000005402D
:103F200000E100E0580000200001004054000020A3
:103F300000000440A55A00008C000020FEB5224E6F
:103F400005463068800607D4306820210843306079
:103F500000F07CF8012028601C4F1E497868019011
:103F60001B48441A1C48046000201C49C0430860D8
:103F7000002003460246014600900198FCF724F910
:103F800038600198B9680019884203D3316820224B
:103F90009143316078603068800613D438680C4EE5
:103FA000316888420CD023461A4631460CA000F0F6
:103FB00063FF3268396817A000F05EFF002000E060
:103FC000012028600020FEBDAC000020B8000020C9
:103FD000C055000000000000840000208800002080
:103FE000524F4D205F5F436865636B5F53756D2073
:103FF0006174206164647265737320307825782C55
:104000002062696E2073697A653A256428307825C4
:1040100078290A00524F4D207465737420666169D7
:104020006C31206578706563743A30782530387863
:104030002C20627574205F5F436865636B5F537506
:104040006D3A3078253038780A0D00000548064969
:10405000064A4860121A101888600020C0430860A1
:104060007047000000000000B8000020C0550000AC
:1040700070B5012210211B48FFF762FC00220221CB
:1040800018484030FFF75CFC002500201649086105
:10409000164C05E0002C01DD641E01E0012504E062
:1040A0001148403040680028F4D100BF01200E497B
:1040B00008610E4C05E0002C01DD641E01E00125C5
:1040C00004E00948403040680128F4D100BF002DC9
:1040D00003D000200649086002E00120044908607E
:1040E00070BD0000404000404048004010270000E4
:1040F00038000020F8B5284F064601216422C90681
:10410000384600F0D5FD386801214907084338607A
:10411000481522490860224D002028616860286007
:104120005920204C162188222060216022602368BB
:10413000002BF9D04B2189010420FFF70FFA002052
:1041400020606420A8601420E86038680121890795
:104150000843386068680128FCD1384600F06CFDDF
:104160000E490124200280310860FFF7D9F9E9687F
:10417000A8682B68421A9A4205D8401829688842D4
:1041800001D3346005E0296807A000F075FE002027
:1041900030600020F8BD00000000054000E100E0B4
:1041A0005400002000010040636E743D25640A0045
:1041B00070B504461748016801220907002906DB8B
:1041C000016808231943016000F042F82260124D93
:1041D0002260286802281AD310481149006809682B
:1041E0002A68431A53430F4A1668B34205D8401849
:1041F000296848431168884209D211680AA000F072
:104200003BFE29680DA000F037FE00202060002052
:1042100070BD0000AC000020580000205C000020B1
:1042200060000020540000207533325379735469C4
:10423000636B436E743D25640A000000753332548D
:10424000696D657230436E743D25640A000000009C
:104250000349642008600349142008607047000087
:104260005C0000206000002000B50146084A0120E3
:104270000860FDF7AFF90A2801D000200860FEF7BA
:1042800053FC904201D000200860002000BD0000D7
:10429000A92A000070B50446084D01202060FDF7F2
:1042A00099F90A2801D000202060FEF73DFCA842C1
:1042B00001D000202060002070BD0000A92A00006D
:1042C00010B51E23FA220021154800F0E7F901215C
:1042D000134800F07BFA0121114800F091FA002305
:1042E0003E2202210E4800F07FF904210C4800F024
:1042F00087FA04210A4800F05FFA0A484068012161
:10430000890608430749486000BF05489030806827
:104310000028FAD002210248FFF788FA10BD0000F9
:1043200000800540008205400348024901600349BE
:104330004160704700000020B0000020F00B00201A
:10434000F1B582B02020204F00903868C00608D414
:104350003868102108433860FFF7E6FF0298012112
:1043600001601A4830C80194FEF7F0FB2E46403E2B
:10437000A64200D120363046009A0199FEF72FFF61
:104380001348046001681348203101600168491E28
:104390000160FEF7EFFE01460298002E016004D096
:1043A0003146009A0198FEF71AFF2034AC4203D33D
:1043B00038681021884338600448103C0460FEF7D8
:1043C000C9FB0020FEBD0000AC000020B0000020B2
:1043D000240000202800002070B500F02DFA0026EF
:1043E000002536E0002407E0A00021490C50002001
:1043F000A100204A5050641C402CF5D3002414E046
:10440000A0001B4908581C49086200BF1A484069AF
:10441000C007C00F0028F9D11748006BA100154A4A
:104420005050641C402C00D300E0E9E700BF00249A
:1044300009E0A0000F490858A1000D4A51588842D0
:1044400000D00126641C402CF3D3002E00D004E0E1
:104450006D1C012000038542C4D300BF002E03D091
:1044600000200649086002E001200449086070BD90
:10447000DC000020DC010020001006403C00002091
:1044800070B505461348006804210840002808D18B
:104490001048006808430F49086000F027F8012021
:1044A00028600D4C02CC0D4881420ED102CC0C4844
:1044B00081420AD102CC0B48814206D10A492068C8
:1044C000884202D10120286001E0002028600020FD
:1044D00070BD0000AC000020F00B002032543412FC
:1044E000769878567698DCFE12EFCDAB04480549F5
:1044F000086005484860054888600548C8607047FE
:1045000032543412F00B0020769878567698DCFE00
:1045100012EFCDABF8B506464B21274849020160A2
:10452000264CFF2201218132C906204600F0C0FB43
:104530002068012149070843206048152049086088
:10454000204F00253D6020688A051043206002202E
:10455000086000F0D7FA1D4C1B48A0602068242199
:1045600088430821084320600F20800120601848FC
:1045700005601148456041680129FCD100F0C2FA8C
:104580002560134805600E4C0220803420600B48E3
:1045900000F052FBFF2001302060396808460938DE
:1045A000032802D80120306003E00AA000F064FC78
:1045B00035600020F8BD00004C00002000000540E0
:1045C00000E100E058000020A55A0000000004406F
:1045D00000010040636E743D25640A008A40FF308C
:1045E000FF30023042657047FFB5054683B027486B
:1045F00001902848264F012400268069BD4201D140
:10460000204001E002210840002806D000F0AEFA68
:10461000BD4205D1FEF7F0FF04E0FFF739F801E0F5
:10462000FEF7FAFF7D21C900FEF7AFFD00901A49A1
:10463000204648430099FEF7A8FD0599884210D20C
:1046400001231B039C4200D10126134A009F611CD9
:104650004A434743BA4204D9002E02D18CB29C424D
:10466000E5D90499641E4A08A3B291004C1963610C
:104670006B6803248C40A34301248C4023436B606C
:10468000D20052190199116307B0F0BDFFFF00007D
:10469000008005400002004040420F00FFB5044684
:1046A0004248414E01253F4F0221806983B0B44208
:1046B00001D1284000E00840002806D000F056FA5A
:1046C000B44205D1FEF798FF04E0FEF7E1FF01E0F8
:1046D000FEF7A2FF06460599FEF757FD0090294612
:1046E000FEF753FD01210904884201D887B206E094
:1046F0006D1C2F48ADB2854201D20098EFE72946E4
:1047000079433046FEF741FD019004986D1E420842
:104710009000A9B20319596161680323834099434A
:1047200001238340194361607F1ED000B9B2001994
:10473000016304981F4D8000061904980227400069
:10474000034610339F40069A854080340093002A28
:104750001CD01046642A01D3316505E0491C48434A
:104760006421FEF712FD3065206BA8432063216BA6
:10477000009A0120904001432163606BA84360636D
:10478000606B38436063019807B0F0BD002131656C
:10479000216BA9432163226B012181400A432263DB
:1047A000EBE70000FFFF0000008005400002004032
:1047B000FF0F000003000300FF30FF3002300268EB
:1047C0000A43026042680A43426070478030826D4B
:1047D0000A4382657047FF30FF300230426DFF238D
:1047E00001338B401A4000D00122406D01238B40E1
:1047F000184201D0012100E0002150000843704719
:1048000070B5002201252B4693400B4206D0046A66
:10481000560876002B46B3401C430462521C062AFD
:10482000F1D370BD10B583680D24A34311430B432E
:1048300008210B43836010BD08B5074820230422DC
:1048400000210090054800F00BF8002201210348E8
:10485000FFF7E8FF08BD000080841E00001006403E
:10486000FFB5044681B040480A9D1E46844202D0EE
:10487000002005B0F0BD206E400840002066202ECC
:1048800000D10026FEF78EFE074602990122002382
:104890003648002915D0A360029D31022943039DAB
:1048A00029431143216063600446806930218843B5
:1048B0002030A061FEF776FE616B4907490F491C65
:1048C0004EE00021A160039B310219431143216096
:1048D000BD4204D3816930229143203181618169D5
:1048E0008906890F12D081698906890F01290FD0A5
:1048F00081698906890F02290DD01D4EBD4201D262
:10490000B54211D3002060603046B2E7194EF5E79A
:10491000FEF7EAFE06E0406B4107490F3846491CA6
:10492000FEF733FC0646E9E7134F002D0CD0304666
:104930000A2148432946FEF728FC0A21401DFEF7BC
:1049400024FC401EFF2804D9606838436060300AA8
:104950008FE76168490A490201436160411C3046A2
:10496000FEF713FC85E7000000100640000200403F
:10497000006CDC020048E801FF010000F8B50420EB
:10498000FEF708FE0120FEF705FE0220FEF702FEFC
:104990000820FEF7FFFD1020FEF732FF0120FEF792
:1049A0002FFF0220FEF72CFF0820FEF729FF002131
:1049B0000720FEF7C5FE3A4C2046FEF7B7FD07205C
:1049C000FEF7B4FD374D2846FEF7B0FD2B267606E0
:1049D0003046FEF7ABFD344F3846FEF7A7FD3348AF
:1049E000FEF7A4FD3248FEF7A1FD3248FEF79EFD1A
:1049F000002203213046FEF7CBFE00220C21384670
:104A0000FEF7C6FE002211462046FEF7C1FE072132
:104A1000002209022846FEF7BBFE274C2046FEF77F
:104A200085FD0721002209032046FEF7B1FE00F0B4
:104A30009DF8002220211D48FEF7AAFEEA0351013D
:104A40001B48FEF7A5FE002201211A48FEF7A0FE32
:104A50006C07E06BFF2109048843E063E06B3321BE
:104A600049040843E063206B1449000C000440181B
:104A70002063A06B1249084012494018A063124DF0
:104A8000002201212846FEF75BFFA06B0109090106
:104A9000491CA163012291032846FEF751FFF8BD8E
:104AA000103D805F0200805E000020560D004066D1
:104AB0001CFE4367100000A20300C05E44440000D7
:104AC000FF0F0FFF00B0B000404000400121020E78
:104AD000890751188B680122824013438B608868D4
:104AE000904388607047000010B559210448162291
:104AF00088230160026003600468002CF9D010BDB7
:104B00000001004010B55921044816228823016095
:104B1000026003600468002CF9D010BD0001004061
:104B200010B55921044816228823016002600360F1
:104B30000468002CF9D010BD0001004006498A69C4
:104B40001202FCD408600A2804D188690002FCD44F
:104B50000D2008607047000000000740024801680F
:104B6000491C01607047000054000020F8B51D4D3D
:104B700028691C4944071CA000680090640F0020AD
:104B80004031096805221204114216D1080301D5EB
:104B9000164800E016488A030FD40A04920F6B46A9
:104BA0009B5CCA058904D20DC90E891C8008921C21
:104BB00059435043FEF7E9FA80000E4E022CB060D4
:104BC00002D00D49A0000858296A0907090F491C9D
:104BD000FEF7DBFA094930604A108018FEF7D5FA73
:104BE0007060F8BD0002004001020204001BB70023
:104BF0000048E801000000200855000040420F0076
:104C000010B559210A48162388220160036002600A
:104C10000468002CF9D007490B680722120593435A
:104C20000B600B6813430B600021016010BD000096
:104C30000001004000020040002101604161704716
:104C400010B588B00446202215496846FEF7C7FA19
:104C5000144B144A14482033944202D14069000A8C
:104C60000BE09C4202D14069000B06E00F4940690D
:104C70008C4201D1000C00E0000D4107490F0229D0
:104C800004D088006946085808B010BD944201D08D
:104C90009C4202D1FEF7B0FCF6E7FEF7BDFCF3E75D
:104CA0009C55000000000540000200400010054037
:104CB000F7B517460646FFF7C3FF05460024400830
:104CC000B84201D8022008E039462846FEF75DFACE
:104CD000040E02D0611CFEF758FA0199214331609D
:104CE0007060641C604301462846FEF74EFAFEBD24
:104CF00004480121816004484268521C42600161FD
:104D000070470000000005405400002010B5054821
:104D10004168491C416004A000F0AEF80749012039
:104D2000886010BD0C000020544D52315F49525133
:104D300048616E646C65720A000000002000054046
:104D400010B50448FFF7C2FEE1214902024800F015
:104D500005F810BD1000000400000740F0B585B054
:104D60000F46044600252E4614222E496846FEF7BB
:104D700036FA2D492D482E4A8C4205D14369006AE6
:104D80005B015D0F000A0FE02A4B9C4206D143698C
:104D9000006A5B005D0F0004060F07E0944205D136
:104DA000C369006B5B015D0F0607360F00202063AF
:104DB0000320E060A068204B1840A060012D02D0C5
:104DC000042D04D00DE0FEF737FC019009E08C4281
:104DD00001D0944202D1FEF70FFC01E0FEF71CFC6B
:104DE0000490002F1BD0A90068464058711CFEF7A4
:104DF000CCF90546790840183946FEF7C6F90F493F
:104E0000801E884207D9F90068183946FEF7BDF9B7
:104E10000009801E02E0032109070843606205B013
:104E2000F0BD000060550000000007400002004097
:104E300000200740001007400FFFF0FFFFFF0000B9
:104E400010B5FFF76DFE094807498160016824220B
:104E5000914308221143016005490020086005497B
:104E60000120086010BD0000A55A000000000440A9
:104E700000010040500000200FB410B503A9044BFE
:104E8000044A029800F008F810BC08BC04B01847A7
:104E90008D52000048000020FFB591B00F46054636
:104EA000002606E025280AD0149A139990476D1C15
:104EB000761C28780028F5D1304615B0F0BD0024C6
:104EC00000940121F34A029400E004436D1C2B7806
:104ED0000846203B98401042F7D128782A280ED067
:104EE000022128780246303A092A15D8009A0A2366
:104EF0005A43303A80180C436D1C0090F1E701CF03
:104F00000090002805DA0120400304430098404245
:104F10000090022004436D1C28782E2815D104200F
:104F2000044368786D1C2A280AD101CF6D1C0290B9
:104F30000BE002990A225143303940186D1C02904F
:104F40002878014630390929F3D928786C2810D0FF
:104F500006DC4C281AD068280ED06A2817D104E045
:104F6000742813D07A2812D110E0012040050443A0
:104F70000CE00121090501E0032109050C436978D2
:104F8000814203D10120000524186D1C6D1C287876
:104F900003906E281ED00CDC632831D004DC00287E
:104FA0008AD0582811D1B2E064287BD069280CD16E
:104FB00078E073282DD004DC6F2870D0702804D1DD
:104FC000A7E075286CD078286BD0149A1399904775
:104FD000761C62E06002400F022807D003280AD046
:104FE000042838680AD006603F1D56E03868F1177B
:104FF00006604160F8E738680680F5E70670F3E779
:105000003878694608740020487404A80390012089
:1050100003E0386803900020C0433F1D61070FD5AF
:10502000002101E00199491C029A0191914213DA91
:105030008142F7DB019A0399895C0029F2D10BE0E8
:10504000002101E00199491C01918142FADB019A9A
:105050000399895C0029F5D101990098139A401AA7
:1050600000902146149B00F03BF9019980194618E5
:1050700007E0039803990078491C0391149A139947
:1050800090470198401E0190401CF2D12146149B8C
:10509000139A009800F014F986196D1C09E741E095
:1050A00033E034E00A200021049005916002410FB2
:1050B000022905D001CFC2179446032905D007E085
:1050C000FF1DFF08FF0003CF06E000B2C2179446A1
:1050D000042902D140B2C1178C4600226146944592
:1050E00006DA0A460021404291418C462D2102E019
:1050F000210504D52B216A461176012103E0E10741
:1051000001D02021F7E7019154E00A200BE01020A4
:1051100009E0102004900021042004430820059198
:10512000029003E008200021059104906002410FE5
:10513000022905D001CF00229446032906D006E0BB
:10514000FF1DFF08FF0003CF8C4603E080B2042957
:1051500000D1C0B20021019121072BD503997029FC
:1051600006D0049A1021059B4A401A4305D00EE050
:1051700040216A461176012108E06146014306D0CC
:1051800030216A4611760399517602210191049AE1
:105190000821059B4A401A430CD16146014301D1C5
:1051A000610707D530216A461176012101910299E4
:1051B000491E02910399582904D037A103910FA9E0
:1051C0000F910DE039A1F9E76146059B049AFEF7BE
:1051D00018F8039B8C469B5C0F9A521E0F9213701B
:1051E00061460143F0D10F9807A9081A20300390B7
:1051F000600704D5012000048443029801E00120E7
:1052000002900399884201DD401A00E00020411815
:105210000290019809180098401A0090E00306D403
:105220002146149B139A009800F05AF88619002022
:10523000049008E006A9085C149A13999047049812
:10524000401C761C049001998842F3DBE0030CD5E6
:105250002146149B139A009800F042F8861904E046
:10526000149A302013999047761C0299481E029098
:105270000029F5DC08E00F980F990078491C0F9180
:10528000149A13999047761C0399481E039000299D
:10529000F1DCFBE609280100303132333435363792
:1052A0003839616263646566000000003031323372
:1052B0003435363738394142434445460000000012
:1052C000F8B5044600251E461746880404D405E0B8
:1052D00039462020B0476D1C641EF9D52846F8BD1C
:1052E000FFB50446002581B01E46C80301D530270E
:1052F00000E02027880404D505E038460399B0472C
:105300006D1C641EF9D5284605B0F0BD10B50446E5
:10531000FFF714FC204610BDFFF7E6FBFFF72EFB5E
:105320003E4C00262660FFF70BFDFFF7DDFBA005D6
:1053300081698822114381612660394DAE63394C01
:10534000266039A0FFF798FDFDF730FC20680028A3
:1053500001D03CA000E03EA0FFF78EFD3FA0FFF78C
:105360008BFD30481030FEF77FFF2069002801D008
:1053700034A000E036A0FFF77FFD3FA0FFF77CFDE3
:1053800028480C30FFF7C6F8E068002826D02DA08A
:10539000FFF772FD3CA0FFF76FFD22481430FEF7C7
:1053A000A9FE606900281DD026A0FFF765FD3B48D7
:1053B000A061A069012109034018E061E069401E75
:1053C000E061FDF7D7FD002810D035A0FFF754FDB0
:1053D000FEF766FDFEF798FB384E0BE01CA0FFF7CA
:1053E0004BFDFEE71AA0FFF747FDFEE734A0FFF7ED
:1053F00043FDFEE7FEF7D0FAFEF7C2FB3046A6609B
:10540000401EA060FCD135A0FFF736FDA86B002838
:1054100002D00020A863EDE70120FBE70001004077
:10542000404800400C0000204350552052656769F9
:10543000737465722054657374202842495354294B
:105440002E2E2E00506173732021210A00000000CF
:105450004661696C2021210A0000000050726F67CC
:1054600072616D20436F756E74657220546573743C
:10547000202E2E2E000000005744542054657374D3
:10548000202E2E2E00000000496E74657272757019
:10549000742054657374202E2E2E0000000000200E
:1054A00052414D205465737420284D6172636858D1
:1054B0002920506173732021210A000080969800F2
:1054C00052414D205465737420284D6172636858B1
:1054D00029204661696C2021210A00000A00000091
:1054E00010B50446016810A0FFF7C6FC11A0616862
:1054F000FFF7C2FC12A0A168FFF7BEFC13A0E16891
:10550000FFF7BAFC14A02169FFF7B6FC15A061698A
:10551000FFF7B2FC16A0A169FFF7AEFC17A0E16986
:10552000FFF7AAFC10BD0000723020203D2030782B
:1055300025780A00723120203D20307825780A0035
:10554000723220203D20307825780A0072332020E6
:105550003D20307825780A00723132203D203078A5
:1055600025780A006C7220203D20307825780A00CA
:10557000706320203D20307825780A0070737220F7
:105580003D20307825780A000048E80100800000BE
:1055900000D8B80500960000006CDC020000000096
:1055A00000000000006CDC020000000004000000AD
:1055B000080000000C0000000000000000000000D7
:1055C00000000000100000000000000004000000C7
:1055D00008000000000000000400000008000000B7
:1055E0000048E8010000000000800000006CDC02C0
:1055F000000000000048E8010000000000800000FA
:10560000006CDC02000000000048E801000000001F
:1056100000800000006CDC02000000000048E8018F
:1056200000800000000000000000000000000000FA
:105630000096000000000000006CDC02000000008A
:105640000568398E00D8B8056000000000D8B8059C
:105650000000000001000000404B4C000000000072
:10566000000000000000000000000000000000003A
:10567000000000000000000000000000000000002A
:10568000000000000000000000000000000000001A
:10569000000000000000000000000000000000000A
:1056A00000000000000000000000000000000000FA
:1056B00000000000000000000000000000000000EA
:1056C00000000000000000000000000000000000DA
:1056D00000000000000000000000000000000000CA
:1056E00000000000000000000000000000000000BA
:1056F00000000000000000000000000000000000AA
:105700000000000000000000000000000000000099
:105710000000000000000000000000000000000089
:1057200032543412769878567698DCFE12EFCDAB70
